:1000000012C02CC02BC02AC029C028C027C026C0BF
:1000100044C014C123C022C021C020C01FC01EC0C4
:100020001DC01CC01BC011241FBECFE5D4E0DEBF25
:10003000CDBF11E0A0E6B0E0E6EFF2E002C005902F
:100040000D92A632B107D9F721E0A6E2B1E001C0D6
:100050001D92A533B207E1F702D04BC1D1CFEBD04F
:1000600046D10ED0FFCF91E09EBD20E034E93DBDEA
:100070002CBD89B7846089BF789490932701089537
:1000800080E094E99DBD8CBD89B7846089BF809173
:100090002701811101C0E7CF08951F920F920FB67B
:1000A0000F9211242F933F934F935F936F937F93FE
:1000B0008F939F93AF93BF93EF93FF9380E094E967
:1000C0009DBD8CBD8091260122D0FC0188E0ADE26F
:1000D000B1E001900D928A95E1F78091260184317B
:1000E000A0F48F5F80932601FF91EF91BF91AF91B4
:1000F0009F918F917F916F915F914F913F912F9140
:100100000F900FBE0F901F90189580E0EBCF81509D
:10011000833148F4E82FF0E0EE0FFF1FE050FF4F6F
:1001200080819181089588EF90E00895969A00006B
:10013000969800000000000000000895969A0000C4
:10014000000000000000969800000895EF92FF92D2
:100150000F931F93CF93DF93F62EE72E082FC8E05F
:10016000D0E010E8812F8E21882321F1E7DF16955A
:1001700021972097B9F7C8E0D0E010E8812F8F21B0
:100180008823D1F0DBDF169521972097B9F7C8E0D7
:10019000D0E010E8812F8023882381F0CFDF1695EF
:1001A00021972097B9F7DF91CF911F910F91FF9081
:1001B000EF900895BBDFDBCFB9DFE5CFB7DFEFCF3F
:1001C000CF93C0E4609128017091290180912A01A8
:1001D000BDDFC150C111F6CF8FEF95E30197F1F765
:1001E00000C00000CF910895982F85E5891B6BEA28
:1001F000690F7AEA791B392F309526E5290F963554
:1002000018F460E0792FA2CF80E09B3AE0F3632FEF
:1002100070E0822FF8CF85E083BF89B7816089BF06
:10022000789481E080932C01089580912C018111B4
:1002300001C0F1CF08958E9AC3DFF7CF1F920F92BE
:100240000FB60F921124EF92FF921F932F933F93BB
:100250004F935F936F937F938F939F93AF93BF93CE
:10026000CF93DF93EF93FF9380912B018F5F809368
:100270002B018DE2E82E81E0F82E17E0C0E0D0E0FF
:10028000F701878190E00C2E02C0959587950A941E
:10029000E2F780FF24C080912B01810FA5DF21961A
:1002A000C830D10569F7115021E0E21AF1081F3F6B
:1002B00029F7FF91EF91DF91CF91BF91AF919F917E
:1002C0008F917F916F915F914F913F912F911F91EE
:1002D000FF90EF900F900FBE0F901F9018956091B8
:1002E00028017091290180912A0130DFD8CFBD9A71
:0602F0000895F894FFCF11
:1002F60000004800004800000000480000480000D8
:10030600000024000024000000002404042400004F
:100316000000240000240000000024202024000007
:10032600000014000014000000001200001200007B
:10033600000012000012000000001200001200006F
:10034600000012000012000000001200001200005F
:1003560000001400001400000000242020240000E7
:1003660000002400002400000000240404240000EF
:10037600000024000024000000004800004800009F
:100386000000480000480000000048000048000047
:10039600F000E800E000D800D000C800C000B800B7
:1003A600B000A800A00098009000880080007800A7
:0603B60070006800600009
:00000001FF
