:1000000012C02CC02BC02AC029C028C027C026C0BF
:1000100044C013C123C022C021C020C01FC01EC0C5
:100020001DC01CC01BC011241FBECFE5D4E0DEBF25
:10003000CDBF15E0A0E6B0E0E8ECF2E002C005902C
:100040000D92A838B107D9F725E0A8E8B5E001C0BE
:100050001D92AF3CB207E1F702D034C1D1CFEAD054
:100060002FD10ED0FFCF91E09EBD20E034E93DBD01
:100070002CBD89B7846089BF7894909389050895D1
:1000800080E094E99DBD8CBD89B7846089BF809173
:100090008905811101C0E7CF08951F920F920FB615
:1000A0000F9211242F933F934F935F936F937F93FE
:1000B0008F939F93AF93BF93EF93FF9380E094E967
:1000C0009DBD8CBD8091880522D0FC0180E4AFE805
:1000D000B5E001900D928A95E1F780918805843111
:1000E000A0F48F5F80938805FF91EF91BF91AF914E
:1000F0009F918F917F916F915F914F913F912F9140
:100100000F900FBE0F901F90189580E0EBCF8431B9
:1001100048F4E82FF0E0EE0FFF1FE05AFA4F80811D
:10012000918108950895969A000000009698000025
:100130000000000000000895969A000000000000F2
:1001400000009698000000000895EF92FF920F9330
:100150001F93CF93DF93F62EE72E082FC8E0D0E051
:1001600010E8812F8E21882321F1E6DF1695219753
:100170002097B9F7C8E0D0E010E8812F8F218823BD
:10018000D1F0DADF169521972097B9F7C8E0D0E0D3
:1001900010E8812F8023882381F0CEDF16952197E8
:1001A0002097B9F7DF91CF911F910F91FF90EF90BA
:1001B0000895B9DFDBCFB7DFE5CFB5DFEFCFCF9362
:1001C000C0E460918A0570918B0580918C05BDDF3C
:1001D000C150C111F6CF8FEF95E30197F1F700C041
:1001E0000000CF910895982F85E5891B6BEA690F70
:1001F0007AEA791B392F309526E5290F963518F4C0
:1002000060E0792FA2CF80E09B3AE0F3632F70E0AB
:10021000822FF8CF85E083BF89B7816089BF78944A
:1002200081E080938E05089580918E05811101C033
:10023000F1CF08958E9AC3DFF7CF1F920F920FB6BA
:100240000F9211240F931F932F933F934F935F931C
:100250006F937F938F939F93AF93BF93CF93EF93BE
:10026000FF9380918D058F5F80938D050FEC15E0D6
:10027000CFE3F80182918F018823D1F080918D0521
:100280008C0FB1DFC150A8F7FF91EF91CF91BF91D3
:10029000AF919F918F917F916F915F914F913F911E
:1002A0002F911F910F910F900FBE0F901F901895D7
:1002B00060918A0570918B0580918C0546DFE2CFB5
:0802C000BD9A0895F894FFCFE8
:1002C8000000000000000000000000000000000026
:1002D8000001000001000000000000000000000014
:1002E8000000000000000000000100000100000004
:1002F80000000000000000000000000000000000F6
:1003080000000000000000000000000000000000E5
:1003180000010000010000000000000000000000D3
:1003280000000000000000000001000001000000C3
:1003380000000000000000000000000000000000B5
:1003480000000000000000000000000000000000A5
:100358000000010001000000000000000000000093
:100368000000000000000000000001000100000083
:100378000000000000000000000000000000000075
:100388000000000000000000000000000000000065
:100398000000010000010000000000000001000052
:1003A8000000000000010000000001000001000042
:1003B8000000000000000000000000000000000035
:1003C8000000000000000000000000000000000025
:1003D8000000010000010000000000000000000013
:1003E8000000000000000000000001000001000003
:1003F80000000000000000000000000000000000F5
:1004080000000000000000000000000000000000E4
:1004180000000100000100000000010000000000D1
:1004280000000100000000000000010000010000C1
:1004380000000000000000000000000000000000B4
:1004480000000000000000000000000000000000A4
:100458000000000100010000000000000000000092
:100468000000000000000000000000010001000082
:100478000000000000000000000000000000000074
:100488000000000000000000000000000000000064
:100498000000000100000100000000000000000052
:1004A8000000000000000000000000010000010042
:1004B8000000000000000000000000000000000034
:1004C8000000000000000000000000000000000024
:1004D8000000000100000100000000000000000012
:1004E8000000000000000000000000010000010002
:1004F80000000000000000000000000000000000F4
:1005080000000000000000000000000000000000E3
:1005180000000001000001000000000000000000D1
:1005280000000000000000000000000100000100C1
:1005380000000000000000000000000000000000B3
:1005480000000000000000000000000000000000A3
:100558000000000100000100000000000000000091
:100568000000000000000000000000010000010081
:100578000000000000000000000000000000000073
:100588000000000000000000000000000000000063
:100598000000000100000100000000000000000051
:1005A8000000000000000000000000010000010041
:1005B8000000000000000000000000000000000033
:1005C8000000000000000000000000000000000023
:1005D8000000000100010000000000000000000011
:1005E8000000000000000000000000010001000001
:1005F80000000000000000000000000000000000F3
:1006080000000000000000000000000000000000E2
:1006180000000100000100000000010000000000CF
:1006280000000100000000000000010000010000BF
:1006380000000000000000000000000000000000B2
:1006480000000000000000000000000000000000A2
:100658000000010000010000000000000000000090
:100668000000000000000000000001000001000080
:100678000000000000000000000000000000000072
:100688000000000000000000000000000000000062
:10069800000001000001000000000000000100004F
:1006A800000000000001000000000100000100003F
:1006B8000000000000000000000000000000000032
:1006C8000000000000000000000000000000000022
:1006D8000000010001000000000000000000000010
:1006E8000000000000000000000001000100000000
:1006F80000000000000000000000000000000000F2
:1007080000000000000000000000000000000000E1
:1007180000010000010000000000000000000000CF
:1007280000000000000000000001000001000000BF
:1007380000000000000000000000000000000000B1
:1007480000000000000000000000000000000000A1
:10075800000100000100000000000000000000008F
:10076800000000000000000000010000010000007F
:100778000000000000000000000000000000000071
:100788000000000000000000000000000000000061
:10079800000100000100000000000000000000004F
:1007A800000000000000000000010000010000003F
:1007B8000000000000000000000000000000000031
:1007C8002005E004A00460042004E003A003600303
:1007D8002003E002A00260022002E001A001600103
:0807E8002001E000A000600008
:00000001FF
