:1000000012C02CC02BC02AC029C028C027C026C0BF
:1000100025C0D2C023C022C021C020C01FC01EC026
:100020001DC01CC01BC011241FBECFE5D4E0DEBF25
:10003000CDBF10E0A0E6B0E0E6E4F2E002C005903B
:100040000D92A03AB107D9F720E0A0EAB0E001C0D4
:100050001D92A53EB207E1F702D0F3C0D1CFCDB7D4
:10006000DEB7C054D1090FB6F894DEBF0FBECDBFC6
:1000700080E4E0E6F0E0DE01119601900D928A95B1
:10008000E1F765D0DCD0CE01019685D0FFCF969AFE
:100090000000000096980000000000000000089595
:1000A000969A0000000000000000969800000000F2
:1000B0000895EF92FF920F931F93CF93DF93F62E45
:1000C000E72E082FC8E0D0E010E8812F8E2188238A
:1000D00021F1E6DF169521972097B9F7C8E0D0E027
:1000E00010E8812F8F218823D1F0DADF1695219730
:1000F0002097B9F7C8E0D0E010E8812F802388234B
:1001000081F0CEDF169521972097B9F7DF91CF9137
:100110001F910F91FF90EF900895B9DFDBCFB7DF0C
:10012000E5CFB5DFEFCFCF93C0E46091E0007091F1
:10013000E1008091E200BDDFC150C111F6CF8FEF29
:1001400095E30197F1F700C00000CF9108958E9AD2
:10015000EACF982F85E5891B6BEA690F7AEA791B4C
:10016000392F309526E5290F963518F460E0792F60
:10017000A0CF80E09B3AE0F3632F70E0822FF8CFAE
:1001800083B7856083BF89B7816089BF789481E038
:100190008093E40008959C01FC01E05CFF4FA0EE19
:1001A000B0E082918E932E173F07D9F78091E4003B
:1001B000811101C0E5CF08951F920F920FB60F92E3
:1001C00011240F931F932F933F934F935F936F933C
:1001D0007F938F939F93AF93BF93CF93EF93FF93AF
:1001E0008091E3008F5F8093E30000EE10E0CFE3A7
:1001F000F80182918F018823D1F08091E3008C0F68
:10020000A8DFC150A8F7FF91EF91CF91BF91AF91B7
:100210009F918F917F916F915F914F913F912F911E
:100220001F910F910F900FBE0F901F901895609126
:10023000E0007091E1008091E2003BDFE2CFBD9AE7
:060240000895F894FFCFC1
:1002460000000101010100000001000000000100A2
:100256000100000000000001010000000000000194
:100266000100000000000001010000000000000184
:100276000001000000000100000001010101000072
:00000001FF
